{
  "_format": "hh-sol-artifact-1",
  "contractName": "ReviewSystem",
  "sourceName": "contracts/ReviewSystem.sol",
  "abi": [
    {
      "anonymous": false,
      "inputs": [
        {
          "indexed": false,
          "internalType": "uint256",
          "name": "productId",
          "type": "uint256"
        },
        {
          "indexed": true,
          "internalType": "address",
          "name": "buyer",
          "type": "address"
        },
        {
          "indexed": false,
          "internalType": "uint8",
          "name": "rating",
          "type": "uint8"
        },
        {
          "indexed": false,
          "internalType": "string",
          "name": "comment",
          "type": "string"
        }
      ],
      "name": "ReviewSubmitted",
      "type": "event"
    },
    {
      "inputs": [
        {
          "internalType": "uint256",
          "name": "productId",
          "type": "uint256"
        }
      ],
      "name": "getAverageRating",
      "outputs": [
        {
          "internalType": "uint8",
          "name": "",
          "type": "uint8"
        }
      ],
      "stateMutability": "view",
      "type": "function"
    },
    {
      "inputs": [
        {
          "internalType": "uint256",
          "name": "productId",
          "type": "uint256"
        }
      ],
      "name": "getReviewCount",
      "outputs": [
        {
          "internalType": "uint256",
          "name": "",
          "type": "uint256"
        }
      ],
      "stateMutability": "view",
      "type": "function"
    },
    {
      "inputs": [
        {
          "internalType": "uint256",
          "name": "productId",
          "type": "uint256"
        }
      ],
      "name": "getReviews",
      "outputs": [
        {
          "components": [
            {
              "internalType": "address",
              "name": "buyer",
              "type": "address"
            },
            {
              "internalType": "uint256",
              "name": "productId",
              "type": "uint256"
            },
            {
              "internalType": "uint8",
              "name": "rating",
              "type": "uint8"
            },
            {
              "internalType": "string",
              "name": "comment",
              "type": "string"
            }
          ],
          "internalType": "struct ReviewSystem.Review[]",
          "name": "",
          "type": "tuple[]"
        }
      ],
      "stateMutability": "view",
      "type": "function"
    },
    {
      "inputs": [
        {
          "internalType": "uint256",
          "name": "",
          "type": "uint256"
        },
        {
          "internalType": "uint256",
          "name": "",
          "type": "uint256"
        }
      ],
      "name": "productReviews",
      "outputs": [
        {
          "internalType": "address",
          "name": "buyer",
          "type": "address"
        },
        {
          "internalType": "uint256",
          "name": "productId",
          "type": "uint256"
        },
        {
          "internalType": "uint8",
          "name": "rating",
          "type": "uint8"
        },
        {
          "internalType": "string",
          "name": "comment",
          "type": "string"
        }
      ],
      "stateMutability": "view",
      "type": "function"
    },
    {
      "inputs": [
        {
          "internalType": "uint256",
          "name": "productId",
          "type": "uint256"
        },
        {
          "internalType": "uint8",
          "name": "rating",
          "type": "uint8"
        },
        {
          "internalType": "string",
          "name": "comment",
          "type": "string"
        }
      ],
      "name": "submitReview",
      "outputs": [],
      "stateMutability": "nonpayable",
      "type": "function"
    }
  ],
  "bytecode": "0x6080604052348015600f57600080fd5b506111628061001f6000396000f3fe608060405234801561001057600080fd5b50600436106100575760003560e01c806317b7e03e1461005c5780635d75135a1461008c57806374a5b693146100bc5780639d4a2255146100d8578063f2943dce14610108575b600080fd5b610076600480360381019061007191906106cd565b61013b565b6040516100839190610716565b60405180910390f35b6100a660048036038101906100a191906106cd565b6101eb565b6040516100b39190610740565b60405180910390f35b6100d660048036038101906100d191906108cd565b61020a565b005b6100f260048036038101906100ed91906106cd565b610401565b6040516100ff9190610b3f565b60405180910390f35b610122600480360381019061011d9190610b61565b610581565b6040516101329493929190610bfa565b60405180910390f35b600080600080848152602001908152602001600020805490509050600081036101685760009150506101e6565b6000805b828110156101d457600080868152602001908152602001600020818154811061019857610197610c46565b5b906000526020600020906004020160020160009054906101000a900460ff1660ff16826101c59190610ca4565b9150808060010191505061016c565b5081816101e19190610d07565b925050505b919050565b6000806000838152602001908152602001600020805490509050919050565b60018260ff1610158015610222575060058260ff1611155b610261576040517f08c379a000000000000000000000000000000000000000000000000000000000815260040161025890610d84565b60405180910390fd5b60008151116102a5576040517f08c379a000000000000000000000000000000000000000000000000000000000815260040161029c90610df0565b60405180910390fd5b600060405180608001604052803373ffffffffffffffffffffffffffffffffffffffff1681526020018581526020018460ff16815260200183815250905060008085815260200190815260200160002081908060018154018082558091505060019003906000526020600020906004020160009091909190915060008201518160000160006101000a81548173ffffffffffffffffffffffffffffffffffffffff021916908373ffffffffffffffffffffffffffffffffffffffff1602179055506020820151816001015560408201518160020160006101000a81548160ff021916908360ff16021790555060608201518160030190816103a6919061101c565b5050503373ffffffffffffffffffffffffffffffffffffffff167f1d4e9183da763b1e285cbd17de8d69818200b71822bc1d67e368eaadde895f1c8585856040516103f3939291906110ee565b60405180910390a250505050565b6060600080838152602001908152602001600020805480602002602001604051908101604052809291908181526020016000905b8282101561057657838290600052602060002090600402016040518060800160405290816000820160009054906101000a900473ffffffffffffffffffffffffffffffffffffffff1673ffffffffffffffffffffffffffffffffffffffff1673ffffffffffffffffffffffffffffffffffffffff168152602001600182015481526020016002820160009054906101000a900460ff1660ff1660ff1681526020016003820180546104e590610e3f565b80601f016020809104026020016040519081016040528092919081815260200182805461051190610e3f565b801561055e5780601f106105335761010080835404028352916020019161055e565b820191906000526020600020905b81548152906001019060200180831161054157829003601f168201915b50505050508152505081526020019060010190610435565b505050509050919050565b6000602052816000526040600020818154811061059d57600080fd5b9060005260206000209060040201600091509150508060000160009054906101000a900473ffffffffffffffffffffffffffffffffffffffff16908060010154908060020160009054906101000a900460ff169080600301805461060090610e3f565b80601f016020809104026020016040519081016040528092919081815260200182805461062c90610e3f565b80156106795780601f1061064e57610100808354040283529160200191610679565b820191906000526020600020905b81548152906001019060200180831161065c57829003601f168201915b5050505050905084565b6000604051905090565b600080fd5b600080fd5b6000819050919050565b6106aa81610697565b81146106b557600080fd5b50565b6000813590506106c7816106a1565b92915050565b6000602082840312156106e3576106e261068d565b5b60006106f1848285016106b8565b91505092915050565b600060ff82169050919050565b610710816106fa565b82525050565b600060208201905061072b6000830184610707565b92915050565b61073a81610697565b82525050565b60006020820190506107556000830184610731565b92915050565b610764816106fa565b811461076f57600080fd5b50565b6000813590506107818161075b565b92915050565b600080fd5b600080fd5b6000601f19601f8301169050919050565b7f4e487b7100000000000000000000000000000000000000000000000000000000600052604160045260246000fd5b6107da82610791565b810181811067ffffffffffffffff821117156107f9576107f86107a2565b5b80604052505050565b600061080c610683565b905061081882826107d1565b919050565b600067ffffffffffffffff821115610838576108376107a2565b5b61084182610791565b9050602081019050919050565b82818337600083830152505050565b600061087061086b8461081d565b610802565b90508281526020810184848401111561088c5761088b61078c565b5b61089784828561084e565b509392505050565b600082601f8301126108b4576108b3610787565b5b81356108c484826020860161085d565b91505092915050565b6000806000606084860312156108e6576108e561068d565b5b60006108f4868287016106b8565b935050602061090586828701610772565b925050604084013567ffffffffffffffff81111561092657610925610692565b5b6109328682870161089f565b9150509250925092565b600081519050919050565b600082825260208201905092915050565b6000819050602082019050919050565b600073ffffffffffffffffffffffffffffffffffffffff82169050919050565b600061099382610968565b9050919050565b6109a381610988565b82525050565b6109b281610697565b82525050565b6109c1816106fa565b82525050565b600081519050919050565b600082825260208201905092915050565b60005b83811015610a015780820151818401526020810190506109e6565b60008484015250505050565b6000610a18826109c7565b610a2281856109d2565b9350610a328185602086016109e3565b610a3b81610791565b840191505092915050565b6000608083016000830151610a5e600086018261099a565b506020830151610a7160208601826109a9565b506040830151610a8460408601826109b8565b5060608301518482036060860152610a9c8282610a0d565b9150508091505092915050565b6000610ab58383610a46565b905092915050565b6000602082019050919050565b6000610ad58261093c565b610adf8185610947565b935083602082028501610af185610958565b8060005b85811015610b2d5784840389528151610b0e8582610aa9565b9450610b1983610abd565b925060208a01995050600181019050610af5565b50829750879550505050505092915050565b60006020820190508181036000830152610b598184610aca565b905092915050565b60008060408385031215610b7857610b7761068d565b5b6000610b86858286016106b8565b9250506020610b97858286016106b8565b9150509250929050565b610baa81610988565b82525050565b600082825260208201905092915050565b6000610bcc826109c7565b610bd68185610bb0565b9350610be68185602086016109e3565b610bef81610791565b840191505092915050565b6000608082019050610c0f6000830187610ba1565b610c1c6020830186610731565b610c296040830185610707565b8181036060830152610c3b8184610bc1565b905095945050505050565b7f4e487b7100000000000000000000000000000000000000000000000000000000600052603260045260246000fd5b7f4e487b7100000000000000000000000000000000000000000000000000000000600052601160045260246000fd5b6000610caf82610697565b9150610cba83610697565b9250828201905080821115610cd257610cd1610c75565b5b92915050565b7f4e487b7100000000000000000000000000000000000000000000000000000000600052601260045260246000fd5b6000610d1282610697565b9150610d1d83610697565b925082610d2d57610d2c610cd8565b5b828204905092915050565b7f526174696e67206d757374206265206265747765656e203120616e6420350000600082015250565b6000610d6e601e83610bb0565b9150610d7982610d38565b602082019050919050565b60006020820190508181036000830152610d9d81610d61565b9050919050565b7f436f6d6d656e742063616e6e6f7420626520656d707479000000000000000000600082015250565b6000610dda601783610bb0565b9150610de582610da4565b602082019050919050565b60006020820190508181036000830152610e0981610dcd565b9050919050565b7f4e487b7100000000000000000000000000000000000000000000000000000000600052602260045260246000fd5b60006002820490506001821680610e5757607f821691505b602082108103610e6a57610e69610e10565b5b50919050565b60008190508160005260206000209050919050565b60006020601f8301049050919050565b600082821b905092915050565b600060088302610ed27fffffffffffffffffffffffffffffffffffffffffffffffffffffffffffffffff82610e95565b610edc8683610e95565b95508019841693508086168417925050509392505050565b6000819050919050565b6000610f19610f14610f0f84610697565b610ef4565b610697565b9050919050565b6000819050919050565b610f3383610efe565b610f47610f3f82610f20565b848454610ea2565b825550505050565b600090565b610f5c610f4f565b610f67818484610f2a565b505050565b5b81811015610f8b57610f80600082610f54565b600181019050610f6d565b5050565b601f821115610fd057610fa181610e70565b610faa84610e85565b81016020851015610fb9578190505b610fcd610fc585610e85565b830182610f6c565b50505b505050565b600082821c905092915050565b6000610ff360001984600802610fd5565b1980831691505092915050565b600061100c8383610fe2565b9150826002028217905092915050565b611025826109c7565b67ffffffffffffffff81111561103e5761103d6107a2565b5b6110488254610e3f565b611053828285610f8f565b600060209050601f8311600181146110865760008415611074578287015190505b61107e8582611000565b8655506110e6565b601f19841661109486610e70565b60005b828110156110bc57848901518255600182019150602085019450602081019050611097565b868310156110d957848901516110d5601f891682610fe2565b8355505b6001600288020188555050505b505050505050565b60006060820190506111036000830186610731565b6111106020830185610707565b81810360408301526111228184610bc1565b905094935050505056fea2646970667358221220c2194dc407109d133ed253da563c233b058a319c435498ca7a9b239230489e9e64736f6c634300081c0033",
  "linkReferences": {},
  "deployedLinkReferences": {}
}