{"contracts/ProductListing.sol":{"ProductListing":{"abi":[{"anonymous":false,"inputs":[{"indexed":false,"internalType":"uint256","name":"id","type":"uint256"},{"indexed":false,"internalType":"address","name":"seller","type":"address"},{"indexed":false,"internalType":"string","name":"name","type":"string"},{"indexed":false,"internalType":"uint256","name":"price","type":"uint256"},{"indexed":false,"internalType":"string","name":"metadataHash","type":"string"}],"name":"ProductAdded","type":"event"},{"inputs":[{"internalType":"string","name":"name","type":"string"},{"internalType":"uint256","name":"price","type":"uint256"},{"internalType":"string","name":"metadataHash","type":"string"}],"name":"addProduct","outputs":[],"stateMutability":"nonpayable","type":"function"},{"inputs":[{"internalType":"uint256","name":"productId","type":"uint256"}],"name":"getProduct","outputs":[{"components":[{"internalType":"uint256","name":"id","type":"uint256"},{"internalType":"address","name":"seller","type":"address"},{"internalType":"string","name":"name","type":"string"},{"internalType":"uint256","name":"price","type":"uint256"},{"internalType":"string","name":"metadataHash","type":"string"}],"internalType":"struct ProductListing.Product","name":"","type":"tuple"}],"stateMutability":"view","type":"function"},{"inputs":[{"internalType":"address","name":"seller","type":"address"}],"name":"getProductsBySeller","outputs":[{"internalType":"uint256[]","name":"","type":"uint256[]"}],"stateMutability":"view","type":"function"},{"inputs":[],"name":"productCount","outputs":[{"internalType":"uint256","name":"","type":"uint256"}],"stateMutability":"view","type":"function"},{"inputs":[{"internalType":"uint256","name":"","type":"uint256"}],"name":"products","outputs":[{"internalType":"uint256","name":"id","type":"uint256"},{"internalType":"address","name":"seller","type":"address"},{"internalType":"string","name":"name","type":"string"},{"internalType":"uint256","name":"price","type":"uint256"},{"internalType":"string","name":"metadataHash","type":"string"}],"stateMutability":"view","type":"function"},{"inputs":[{"internalType":"address","name":"","type":"address"},{"internalType":"uint256","name":"","type":"uint256"}],"name":"sellerProducts","outputs":[{"internalType":"uint256","name":"","type":"uint256"}],"stateMutability":"view","type":"function"}],"evm":{"bytecode":{"linkReferences":{},"object":"6080604052348015600f57600080fd5b506113858061001f6000396000f3fe608060405234801561001057600080fd5b50600436106100625760003560e01c80637acc0b20146100675780638f29695a1461009b578063b9db15b4146100b7578063bacdafe0146100e7578063c1302b3414610117578063e0f6ef8714610147575b600080fd5b610081600480360381019061007c9190610890565b610165565b60405161009295949392919061099d565b60405180910390f35b6100b560048036038101906100b09190610b33565b6102cb565b005b6100d160048036038101906100cc9190610890565b610535565b6040516100de9190610ca3565b60405180910390f35b61010160048036038101906100fc9190610cf1565b610733565b60405161010e9190610dcd565b60405180910390f35b610131600480360381019061012c9190610def565b6107ca565b60405161013e9190610e2f565b60405180910390f35b61014f6107fb565b60405161015c9190610e2f565b60405180910390f35b60006020528060005260406000206000915090508060000154908060010160009054906101000a900473ffffffffffffffffffffffffffffffffffffffff16908060020180546101b490610e79565b80601f01602080910402602001604051908101604052809291908181526020018280546101e090610e79565b801561022d5780601f106102025761010080835404028352916020019161022d565b820191906000526020600020905b81548152906001019060200180831161021057829003601f168201915b50505050509080600301549080600401805461024890610e79565b80601f016020809104026020016040519081016040528092919081815260200182805461027490610e79565b80156102c15780601f10610296576101008083540402835291602001916102c1565b820191906000526020600020905b8154815290600101906020018083116102a457829003601f168201915b5050505050905085565b600083511161030f576040517f08c379a000000000000000000000000000000000000000000000000000000000815260040161030690610ef6565b60405180910390fd5b60008211610352576040517f08c379a000000000000000000000000000000000000000000000000000000000815260040161034990610f62565b60405180910390fd5b6000815111610396576040517f08c379a000000000000000000000000000000000000000000000000000000000815260040161038d90610fce565b60405180910390fd5b6000600260008154809291906103ab9061101d565b9190505590506040518060a001604052808281526020013373ffffffffffffffffffffffffffffffffffffffff168152602001858152602001848152602001838152506000808381526020019081526020016000206000820151816000015560208201518160010160006101000a81548173ffffffffffffffffffffffffffffffffffffffff021916908373ffffffffffffffffffffffffffffffffffffffff16021790555060408201518160020190816104669190611211565b506060820151816003015560808201518160040190816104869190611211565b50905050600160003373ffffffffffffffffffffffffffffffffffffffff1673ffffffffffffffffffffffffffffffffffffffff1681526020019081526020016000208190806001815401808255809150506001900390600052602060002001600090919091909150557fab2e2db11c63f528c82e67c1354be7e62837e5885529fef73ef5f170f76c8a6b813386868660405161052795949392919061099d565b60405180910390a150505050565b61053d610801565b6002548210610581576040517f08c379a00000000000000000000000000000000000000000000000000000000081526004016105789061132f565b60405180910390fd5b6000808381526020019081526020016000206040518060a0016040529081600082015481526020016001820160009054906101000a900473ffffffffffffffffffffffffffffffffffffffff1673ffffffffffffffffffffffffffffffffffffffff1673ffffffffffffffffffffffffffffffffffffffff16815260200160028201805461060e90610e79565b80601f016020809104026020016040519081016040528092919081815260200182805461063a90610e79565b80156106875780601f1061065c57610100808354040283529160200191610687565b820191906000526020600020905b81548152906001019060200180831161066a57829003601f168201915b50505050508152602001600382015481526020016004820180546106aa90610e79565b80601f01602080910402602001604051908101604052809291908181526020018280546106d690610e79565b80156107235780601f106106f857610100808354040283529160200191610723565b820191906000526020600020905b81548152906001019060200180831161070657829003601f168201915b5050505050815250509050919050565b6060600160008373ffffffffffffffffffffffffffffffffffffffff1673ffffffffffffffffffffffffffffffffffffffff1681526020019081526020016000208054806020026020016040519081016040528092919081815260200182805480156107be57602002820191906000526020600020905b8154815260200190600101908083116107aa575b50505050509050919050565b600160205281600052604060002081815481106107e657600080fd5b90600052602060002001600091509150505481565b60025481565b6040518060a0016040528060008152602001600073ffffffffffffffffffffffffffffffffffffffff1681526020016060815260200160008152602001606081525090565b6000604051905090565b600080fd5b600080fd5b6000819050919050565b61086d8161085a565b811461087857600080fd5b50565b60008135905061088a81610864565b92915050565b6000602082840312156108a6576108a5610850565b5b60006108b48482850161087b565b91505092915050565b6108c68161085a565b82525050565b600073ffffffffffffffffffffffffffffffffffffffff82169050919050565b60006108f7826108cc565b9050919050565b610907816108ec565b82525050565b600081519050919050565b600082825260208201905092915050565b60005b8381101561094757808201518184015260208101905061092c565b60008484015250505050565b6000601f19601f8301169050919050565b600061096f8261090d565b6109798185610918565b9350610989818560208601610929565b61099281610953565b840191505092915050565b600060a0820190506109b260008301886108bd565b6109bf60208301876108fe565b81810360408301526109d18186610964565b90506109e060608301856108bd565b81810360808301526109f28184610964565b90509695505050505050565b600080fd5b600080fd5b7f4e487b7100000000000000000000000000000000000000000000000000000000600052604160045260246000fd5b610a4082610953565b810181811067ffffffffffffffff82111715610a5f57610a5e610a08565b5b80604052505050565b6000610a72610846565b9050610a7e8282610a37565b919050565b600067ffffffffffffffff821115610a9e57610a9d610a08565b5b610aa782610953565b9050602081019050919050565b82818337600083830152505050565b6000610ad6610ad184610a83565b610a68565b905082815260208101848484011115610af257610af1610a03565b5b610afd848285610ab4565b509392505050565b600082601f830112610b1a57610b196109fe565b5b8135610b2a848260208601610ac3565b91505092915050565b600080600060608486031215610b4c57610b4b610850565b5b600084013567ffffffffffffffff811115610b6a57610b69610855565b5b610b7686828701610b05565b9350506020610b878682870161087b565b925050604084013567ffffffffffffffff811115610ba857610ba7610855565b5b610bb486828701610b05565b9150509250925092565b610bc78161085a565b82525050565b610bd6816108ec565b82525050565b600082825260208201905092915050565b6000610bf88261090d565b610c028185610bdc565b9350610c12818560208601610929565b610c1b81610953565b840191505092915050565b600060a083016000830151610c3e6000860182610bbe565b506020830151610c516020860182610bcd565b5060408301518482036040860152610c698282610bed565b9150506060830151610c7e6060860182610bbe565b5060808301518482036080860152610c968282610bed565b9150508091505092915050565b60006020820190508181036000830152610cbd8184610c26565b905092915050565b610cce816108ec565b8114610cd957600080fd5b50565b600081359050610ceb81610cc5565b92915050565b600060208284031215610d0757610d06610850565b5b6000610d1584828501610cdc565b91505092915050565b600081519050919050565b600082825260208201905092915050565b6000819050602082019050919050565b6000610d568383610bbe565b60208301905092915050565b6000602082019050919050565b6000610d7a82610d1e565b610d848185610d29565b9350610d8f83610d3a565b8060005b83811015610dc0578151610da78882610d4a565b9750610db283610d62565b925050600181019050610d93565b5085935050505092915050565b60006020820190508181036000830152610de78184610d6f565b905092915050565b60008060408385031215610e0657610e05610850565b5b6000610e1485828601610cdc565b9250506020610e258582860161087b565b9150509250929050565b6000602082019050610e4460008301846108bd565b92915050565b7f4e487b7100000000000000000000000000000000000000000000000000000000600052602260045260246000fd5b60006002820490506001821680610e9157607f821691505b602082108103610ea457610ea3610e4a565b5b50919050565b7f50726f64756374206e616d652063616e6e6f7420626520656d70747900000000600082015250565b6000610ee0601c83610918565b9150610eeb82610eaa565b602082019050919050565b60006020820190508181036000830152610f0f81610ed3565b9050919050565b7f5072696365206d7573742062652067726561746572207468616e207a65726f00600082015250565b6000610f4c601f83610918565b9150610f5782610f16565b602082019050919050565b60006020820190508181036000830152610f7b81610f3f565b9050919050565b7f4d6574616461746120686173682063616e6e6f7420626520656d707479000000600082015250565b6000610fb8601d83610918565b9150610fc382610f82565b602082019050919050565b60006020820190508181036000830152610fe781610fab565b9050919050565b7f4e487b7100000000000000000000000000000000000000000000000000000000600052601160045260246000fd5b60006110288261085a565b91507fffffffffffffffffffffffffffffffffffffffffffffffffffffffffffffffff820361105a57611059610fee565b5b600182019050919050565b60008190508160005260206000209050919050565b60006020601f8301049050919050565b600082821b905092915050565b6000600883026110c77fffffffffffffffffffffffffffffffffffffffffffffffffffffffffffffffff8261108a565b6110d1868361108a565b95508019841693508086168417925050509392505050565b6000819050919050565b600061110e6111096111048461085a565b6110e9565b61085a565b9050919050565b6000819050919050565b611128836110f3565b61113c61113482611115565b848454611097565b825550505050565b600090565b611151611144565b61115c81848461111f565b505050565b5b8181101561118057611175600082611149565b600181019050611162565b5050565b601f8211156111c55761119681611065565b61119f8461107a565b810160208510156111ae578190505b6111c26111ba8561107a565b830182611161565b50505b505050565b600082821c905092915050565b60006111e8600019846008026111ca565b1980831691505092915050565b600061120183836111d7565b9150826002028217905092915050565b61121a8261090d565b67ffffffffffffffff81111561123357611232610a08565b5b61123d8254610e79565b611248828285611184565b600060209050601f83116001811461127b5760008415611269578287015190505b61127385826111f5565b8655506112db565b601f19841661128986611065565b60005b828110156112b15784890151825560018201915060208501945060208101905061128c565b868310156112ce57848901516112ca601f8916826111d7565b8355505b6001600288020188555050505b505050505050565b7f50726f6475637420646f6573206e6f7420657869737400000000000000000000600082015250565b6000611319601683610918565b9150611324826112e3565b602082019050919050565b600060208201905081810360008301526113488161130c565b905091905056fea2646970667358221220f8f3668c331f657bbda41d59009d1b2de489b83515ef73a06bfbffbfb7e6fb9b64736f6c634300081c0033","opcodes":"PUSH1 0x80 PUSH1 0x40 MSTORE CALLVALUE DUP1 ISZERO PUSH1 0xF JUMPI PUSH1 0x0 DUP1 REVERT JUMPDEST POP PUSH2 0x1385 DUP1 PUSH2 0x1F PUSH1 0x0 CODECOPY PUSH1 0x0 RETURN INVALID PUSH1 0x80 PUSH1 0x40 MSTORE CALLVALUE DUP1 ISZERO PUSH2 0x10 JUMPI PUSH1 0x0 DUP1 REVERT JUMPDEST POP PUSH1 0x4 CALLDATASIZE LT PUSH2 0x62 JUMPI PUSH1 0x0 CALLDATALOAD PUSH1 0xE0 SHR DUP1 PUSH4 0x7ACC0B20 EQ PUSH2 0x67 JUMPI DUP1 PUSH4 0x8F29695A EQ PUSH2 0x9B JUMPI DUP1 PUSH4 0xB9DB15B4 EQ PUSH2 0xB7 JUMPI DUP1 PUSH4 0xBACDAFE0 EQ PUSH2 0xE7 JUMPI DUP1 PUSH4 0xC1302B34 EQ PUSH2 0x117 JUMPI DUP1 PUSH4 0xE0F6EF87 EQ PUSH2 0x147 JUMPI JUMPDEST PUSH1 0x0 DUP1 REVERT JUMPDEST PUSH2 0x81 PUSH1 0x4 DUP1 CALLDATASIZE SUB DUP2 ADD SWAP1 PUSH2 0x7C SWAP2 SWAP1 PUSH2 0x890 JUMP JUMPDEST PUSH2 0x165 JUMP JUMPDEST PUSH1 0x40 MLOAD PUSH2 0x92 SWAP6 SWAP5 SWAP4 SWAP3 SWAP2 SWAP1 PUSH2 0x99D JUMP JUMPDEST PUSH1 0x40 MLOAD DUP1 SWAP2 SUB SWAP1 RETURN JUMPDEST PUSH2 0xB5 PUSH1 0x4 DUP1 CALLDATASIZE SUB DUP2 ADD SWAP1 PUSH2 0xB0 SWAP2 SWAP1 PUSH2 0xB33 JUMP JUMPDEST PUSH2 0x2CB JUMP JUMPDEST STOP JUMPDEST PUSH2 0xD1 PUSH1 0x4 DUP1 CALLDATASIZE SUB DUP2 ADD SWAP1 PUSH2 0xCC SWAP2 SWAP1 PUSH2 0x890 JUMP JUMPDEST PUSH2 0x535 JUMP JUMPDEST PUSH1 0x40 MLOAD PUSH2 0xDE SWAP2 SWAP1 PUSH2 0xCA3 JUMP JUMPDEST PUSH1 0x40 MLOAD DUP1 SWAP2 SUB SWAP1 RETURN JUMPDEST PUSH2 0x101 PUSH1 0x4 DUP1 CALLDATASIZE SUB DUP2 ADD SWAP1 PUSH2 0xFC SWAP2 SWAP1 PUSH2 0xCF1 JUMP JUMPDEST PUSH2 0x733 JUMP JUMPDEST PUSH1 0x40 MLOAD PUSH2 0x10E SWAP2 SWAP1 PUSH2 0xDCD JUMP JUMPDEST PUSH1 0x40 MLOAD DUP1 SWAP2 SUB SWAP1 RETURN JUMPDEST PUSH2 0x131 PUSH1 0x4 DUP1 CALLDATASIZE SUB DUP2 ADD SWAP1 PUSH2 0x12C SWAP2 SWAP1 PUSH2 0xDEF JUMP JUMPDEST PUSH2 0x7CA JUMP JUMPDEST PUSH1 0x40 MLOAD PUSH2 0x13E SWAP2 SWAP1 PUSH2 0xE2F JUMP JUMPDEST PUSH1 0x40 MLOAD DUP1 SWAP2 SUB SWAP1 RETURN JUMPDEST PUSH2 0x14F PUSH2 0x7FB JUMP JUMPDEST PUSH1 0x40 MLOAD PUSH2 0x15C SWAP2 SWAP1 PUSH2 0xE2F JUMP JUMPDEST PUSH1 0x40 MLOAD DUP1 SWAP2 SUB SWAP1 RETURN JUMPDEST PUSH1 0x0 PUSH1 0x20 MSTORE DUP1 PUSH1 0x0 MSTORE PUSH1 0x40 PUSH1 0x0 KECCAK256 PUSH1 0x0 SWAP2 POP SWAP1 POP DUP1 PUSH1 0x0 ADD SLOAD SWAP1 DUP1 PUSH1 0x1 ADD PUSH1 0x0 SWAP1 SLOAD SWAP1 PUSH2 0x100 EXP SWAP1 DIV PUSH20 0xFFFFFFFFFFFFFFFFFFFFFFFFFFFFFFFFFFFFFFFF AND SWAP1 DUP1 PUSH1 0x2 ADD DUP1 SLOAD PUSH2 0x1B4 SWAP1 PUSH2 0xE79 JUMP JUMPDEST DUP1 PUSH1 0x1F ADD PUSH1 0x20 DUP1 SWAP2 DIV MUL PUSH1 0x20 ADD PUSH1 0x40 MLOAD SWAP1 DUP2 ADD PUSH1 0x40 MSTORE DUP1 SWAP3 SWAP2 SWAP1 DUP2 DUP2 MSTORE PUSH1 0x20 ADD DUP3 DUP1 SLOAD PUSH2 0x1E0 SWAP1 PUSH2 0xE79 JUMP JUMPDEST DUP1 ISZERO PUSH2 0x22D JUMPI DUP1 PUSH1 0x1F LT PUSH2 0x202 JUMPI PUSH2 0x100 DUP1 DUP4 SLOAD DIV MUL DUP4 MSTORE SWAP2 PUSH1 0x20 ADD SWAP2 PUSH2 0x22D JUMP JUMPDEST DUP3 ADD SWAP2 SWAP1 PUSH1 0x0 MSTORE PUSH1 0x20 PUSH1 0x0 KECCAK256 SWAP1 JUMPDEST DUP2 SLOAD DUP2 MSTORE SWAP1 PUSH1 0x1 ADD SWAP1 PUSH1 0x20 ADD DUP1 DUP4 GT PUSH2 0x210 JUMPI DUP3 SWAP1 SUB PUSH1 0x1F AND DUP3 ADD SWAP2 JUMPDEST POP POP POP POP POP SWAP1 DUP1 PUSH1 0x3 ADD SLOAD SWAP1 DUP1 PUSH1 0x4 ADD DUP1 SLOAD PUSH2 0x248 SWAP1 PUSH2 0xE79 JUMP JUMPDEST DUP1 PUSH1 0x1F ADD PUSH1 0x20 DUP1 SWAP2 DIV MUL PUSH1 0x20 ADD PUSH1 0x40 MLOAD SWAP1 DUP2 ADD PUSH1 0x40 MSTORE DUP1 SWAP3 SWAP2 SWAP1 DUP2 DUP2 MSTORE PUSH1 0x20 ADD DUP3 DUP1 SLOAD PUSH2 0x274 SWAP1 PUSH2 0xE79 JUMP JUMPDEST DUP1 ISZERO PUSH2 0x2C1 JUMPI DUP1 PUSH1 0x1F LT PUSH2 0x296 JUMPI PUSH2 0x100 DUP1 DUP4 SLOAD DIV MUL DUP4 MSTORE SWAP2 PUSH1 0x20 ADD SWAP2 PUSH2 0x2C1 JUMP JUMPDEST DUP3 ADD SWAP2 SWAP1 PUSH1 0x0 MSTORE PUSH1 0x20 PUSH1 0x0 KECCAK256 SWAP1 JUMPDEST DUP2 SLOAD DUP2 MSTORE SWAP1 PUSH1 0x1 ADD SWAP1 PUSH1 0x20 ADD DUP1 DUP4 GT PUSH2 0x2A4 JUMPI DUP3 SWAP1 SUB PUSH1 0x1F AND DUP3 ADD SWAP2 JUMPDEST POP POP POP POP POP SWAP1 POP DUP6 JUMP JUMPDEST PUSH1 0x0 DUP4 MLOAD GT PUSH2 0x30F JUMPI PUSH1 0x40 MLOAD PUSH32 0x8C379A000000000000000000000000000000000000000000000000000000000 DUP2 MSTORE PUSH1 0x4 ADD PUSH2 0x306 SWAP1 PUSH2 0xEF6 JUMP JUMPDEST PUSH1 0x40 MLOAD DUP1 SWAP2 SUB SWAP1 REVERT JUMPDEST PUSH1 0x0 DUP3 GT PUSH2 0x352 JUMPI PUSH1 0x40 MLOAD PUSH32 0x8C379A000000000000000000000000000000000000000000000000000000000 DUP2 MSTORE PUSH1 0x4 ADD PUSH2 0x349 SWAP1 PUSH2 0xF62 JUMP JUMPDEST PUSH1 0x40 MLOAD DUP1 SWAP2 SUB SWAP1 REVERT JUMPDEST PUSH1 0x0 DUP2 MLOAD GT PUSH2 0x396 JUMPI PUSH1 0x40 MLOAD PUSH32 0x8C379A000000000000000000000000000000000000000000000000000000000 DUP2 MSTORE PUSH1 0x4 ADD PUSH2 0x38D SWAP1 PUSH2 0xFCE JUMP JUMPDEST PUSH1 0x40 MLOAD DUP1 SWAP2 SUB SWAP1 REVERT JUMPDEST PUSH1 0x0 PUSH1 0x2 PUSH1 0x0 DUP2 SLOAD DUP1 SWAP3 SWAP2 SWAP1 PUSH2 0x3AB SWAP1 PUSH2 0x101D JUMP JUMPDEST SWAP2 SWAP1 POP SSTORE SWAP1 POP PUSH1 0x40 MLOAD DUP1 PUSH1 0xA0 ADD PUSH1 0x40 MSTORE DUP1 DUP3 DUP2 MSTORE PUSH1 0x20 ADD CALLER PUSH20 0xFFFFFFFFFFFFFFFFFFFFFFFFFFFFFFFFFFFFFFFF AND DUP2 MSTORE PUSH1 0x20 ADD DUP6 DUP2 MSTORE PUSH1 0x20 ADD DUP5 DUP2 MSTORE PUSH1 0x20 ADD DUP4 DUP2 MSTORE POP PUSH1 0x0 DUP1 DUP4 DUP2 MSTORE PUSH1 0x20 ADD SWAP1 DUP2 MSTORE PUSH1 0x20 ADD PUSH1 0x0 KECCAK256 PUSH1 0x0 DUP3 ADD MLOAD DUP2 PUSH1 0x0 ADD SSTORE PUSH1 0x20 DUP3 ADD MLOAD DUP2 PUSH1 0x1 ADD PUSH1 0x0 PUSH2 0x100 EXP DUP2 SLOAD DUP2 PUSH20 0xFFFFFFFFFFFFFFFFFFFFFFFFFFFFFFFFFFFFFFFF MUL NOT AND SWAP1 DUP4 PUSH20 0xFFFFFFFFFFFFFFFFFFFFFFFFFFFFFFFFFFFFFFFF AND MUL OR SWAP1 SSTORE POP PUSH1 0x40 DUP3 ADD MLOAD DUP2 PUSH1 0x2 ADD SWAP1 DUP2 PUSH2 0x466 SWAP2 SWAP1 PUSH2 0x1211 JUMP JUMPDEST POP PUSH1 0x60 DUP3 ADD MLOAD DUP2 PUSH1 0x3 ADD SSTORE PUSH1 0x80 DUP3 ADD MLOAD DUP2 PUSH1 0x4 ADD SWAP1 DUP2 PUSH2 0x486 SWAP2 SWAP1 PUSH2 0x1211 JUMP JUMPDEST POP SWAP1 POP POP PUSH1 0x1 PUSH1 0x0 CALLER PUSH20 0xFFFFFFFFFFFFFFFFFFFFFFFFFFFFFFFFFFFFFFFF AND PUSH20 0xFFFFFFFFFFFFFFFFFFFFFFFFFFFFFFFFFFFFFFFF AND DUP2 MSTORE PUSH1 0x20 ADD SWAP1 DUP2 MSTORE PUSH1 0x20 ADD PUSH1 0x0 KECCAK256 DUP2 SWAP1 DUP1 PUSH1 0x1 DUP2 SLOAD ADD DUP1 DUP3 SSTORE DUP1 SWAP2 POP POP PUSH1 0x1 SWAP1 SUB SWAP1 PUSH1 0x0 MSTORE PUSH1 0x20 PUSH1 0x0 KECCAK256 ADD PUSH1 0x0 SWAP1 SWAP2 SWAP1 SWAP2 SWAP1 SWAP2 POP SSTORE PUSH32 0xAB2E2DB11C63F528C82E67C1354BE7E62837E5885529FEF73EF5F170F76C8A6B DUP2 CALLER DUP7 DUP7 DUP7 PUSH1 0x40 MLOAD PUSH2 0x527 SWAP6 SWAP5 SWAP4 SWAP3 SWAP2 SWAP1 PUSH2 0x99D JUMP JUMPDEST PUSH1 0x40 MLOAD DUP1 SWAP2 SUB SWAP1 LOG1 POP POP POP POP JUMP JUMPDEST PUSH2 0x53D PUSH2 0x801 JUMP JUMPDEST PUSH1 0x2 SLOAD DUP3 LT PUSH2 0x581 JUMPI PUSH1 0x40 MLOAD PUSH32 0x8C379A000000000000000000000000000000000000000000000000000000000 DUP2 MSTORE PUSH1 0x4 ADD PUSH2 0x578 SWAP1 PUSH2 0x132F JUMP JUMPDEST PUSH1 0x40 MLOAD DUP1 SWAP2 SUB SWAP1 REVERT JUMPDEST PUSH1 0x0 DUP1 DUP4 DUP2 MSTORE PUSH1 0x20 ADD SWAP1 DUP2 MSTORE PUSH1 0x20 ADD PUSH1 0x0 KECCAK256 PUSH1 0x40 MLOAD DUP1 PUSH1 0xA0 ADD PUSH1 0x40 MSTORE SWAP1 DUP2 PUSH1 0x0 DUP3 ADD SLOAD DUP2 MSTORE PUSH1 0x20 ADD PUSH1 0x1 DUP3 ADD PUSH1 0x0 SWAP1 SLOAD SWAP1 PUSH2 0x100 EXP SWAP1 DIV PUSH20 0xFFFFFFFFFFFFFFFFFFFFFFFFFFFFFFFFFFFFFFFF AND PUSH20 0xFFFFFFFFFFFFFFFFFFFFFFFFFFFFFFFFFFFFFFFF AND PUSH20 0xFFFFFFFFFFFFFFFFFFFFFFFFFFFFFFFFFFFFFFFF AND DUP2 MSTORE PUSH1 0x20 ADD PUSH1 0x2 DUP3 ADD DUP1 SLOAD PUSH2 0x60E SWAP1 PUSH2 0xE79 JUMP JUMPDEST DUP1 PUSH1 0x1F ADD PUSH1 0x20 DUP1 SWAP2 DIV MUL PUSH1 0x20 ADD PUSH1 0x40 MLOAD SWAP1 DUP2 ADD PUSH1 0x40 MSTORE DUP1 SWAP3 SWAP2 SWAP1 DUP2 DUP2 MSTORE PUSH1 0x20 ADD DUP3 DUP1 SLOAD PUSH2 0x63A SWAP1 PUSH2 0xE79 JUMP JUMPDEST DUP1 ISZERO PUSH2 0x687 JUMPI DUP1 PUSH1 0x1F LT PUSH2 0x65C JUMPI PUSH2 0x100 DUP1 DUP4 SLOAD DIV MUL DUP4 MSTORE SWAP2 PUSH1 0x20 ADD SWAP2 PUSH2 0x687 JUMP JUMPDEST DUP3 ADD SWAP2 SWAP1 PUSH1 0x0 MSTORE PUSH1 0x20 PUSH1 0x0 KECCAK256 SWAP1 JUMPDEST DUP2 SLOAD DUP2 MSTORE SWAP1 PUSH1 0x1 ADD SWAP1 PUSH1 0x20 ADD DUP1 DUP4 GT PUSH2 0x66A JUMPI DUP3 SWAP1 SUB PUSH1 0x1F AND DUP3 ADD SWAP2 JUMPDEST POP POP POP POP POP DUP2 MSTORE PUSH1 0x20 ADD PUSH1 0x3 DUP3 ADD SLOAD DUP2 MSTORE PUSH1 0x20 ADD PUSH1 0x4 DUP3 ADD DUP1 SLOAD PUSH2 0x6AA SWAP1 PUSH2 0xE79 JUMP JUMPDEST DUP1 PUSH1 0x1F ADD PUSH1 0x20 DUP1 SWAP2 DIV MUL PUSH1 0x20 ADD PUSH1 0x40 MLOAD SWAP1 DUP2 ADD PUSH1 0x40 MSTORE DUP1 SWAP3 SWAP2 SWAP1 DUP2 DUP2 MSTORE PUSH1 0x20 ADD DUP3 DUP1 SLOAD PUSH2 0x6D6 SWAP1 PUSH2 0xE79 JUMP JUMPDEST DUP1 ISZERO PUSH2 0x723 JUMPI DUP1 PUSH1 0x1F LT PUSH2 0x6F8 JUMPI PUSH2 0x100 DUP1 DUP4 SLOAD DIV MUL DUP4 MSTORE SWAP2 PUSH1 0x20 ADD SWAP2 PUSH2 0x723 JUMP JUMPDEST DUP3 ADD SWAP2 SWAP1 PUSH1 0x0 MSTORE PUSH1 0x20 PUSH1 0x0 KECCAK256 SWAP1 JUMPDEST DUP2 SLOAD DUP2 MSTORE SWAP1 PUSH1 0x1 ADD SWAP1 PUSH1 0x20 ADD DUP1 DUP4 GT PUSH2 0x706 JUMPI DUP3 SWAP1 SUB PUSH1 0x1F AND DUP3 ADD SWAP2 JUMPDEST POP POP POP POP POP DUP2 MSTORE POP POP SWAP1 POP SWAP2 SWAP1 POP JUMP JUMPDEST PUSH1 0x60 PUSH1 0x1 PUSH1 0x0 DUP4 PUSH20 0xFFFFFFFFFFFFFFFFFFFFFFFFFFFFFFFFFFFFFFFF AND PUSH20 0xFFFFFFFFFFFFFFFFFFFFFFFFFFFFFFFFFFFFFFFF AND DUP2 MSTORE PUSH1 0x20 ADD SWAP1 DUP2 MSTORE PUSH1 0x20 ADD PUSH1 0x0 KECCAK256 DUP1 SLOAD DUP1 PUSH1 0x20 MUL PUSH1 0x20 ADD PUSH1 0x40 MLOAD SWAP1 DUP2 ADD PUSH1 0x40 MSTORE DUP1 SWAP3 SWAP2 SWAP1 DUP2 DUP2 MSTORE PUSH1 0x20 ADD DUP3 DUP1 SLOAD DUP1 ISZERO PUSH2 0x7BE JUMPI PUSH1 0x20 MUL DUP3 ADD SWAP2 SWAP1 PUSH1 0x0 MSTORE PUSH1 0x20 PUSH1 0x0 KECCAK256 SWAP1 JUMPDEST DUP2 SLOAD DUP2 MSTORE PUSH1 0x20 ADD SWAP1 PUSH1 0x1 ADD SWAP1 DUP1 DUP4 GT PUSH2 0x7AA JUMPI JUMPDEST POP POP POP POP POP SWAP1 POP SWAP2 SWAP1 POP JUMP JUMPDEST PUSH1 0x1 PUSH1 0x20 MSTORE DUP2 PUSH1 0x0 MSTORE PUSH1 0x40 PUSH1 0x0 KECCAK256 DUP2 DUP2 SLOAD DUP2 LT PUSH2 0x7E6 JUMPI PUSH1 0x0 DUP1 REVERT JUMPDEST SWAP1 PUSH1 0x0 MSTORE PUSH1 0x20 PUSH1 0x0 KECCAK256 ADD PUSH1 0x0 SWAP2 POP SWAP2 POP POP SLOAD DUP2 JUMP JUMPDEST PUSH1 0x2 SLOAD DUP2 JUMP JUMPDEST PUSH1 0x40 MLOAD DUP1 PUSH1 0xA0 ADD PUSH1 0x40 MSTORE DUP1 PUSH1 0x0 DUP2 MSTORE PUSH1 0x20 ADD PUSH1 0x0 PUSH20 0xFFFFFFFFFFFFFFFFFFFFFFFFFFFFFFFFFFFFFFFF AND DUP2 MSTORE PUSH1 0x20 ADD PUSH1 0x60 DUP2 MSTORE PUSH1 0x20 ADD PUSH1 0x0 DUP2 MSTORE PUSH1 0x20 ADD PUSH1 0x60 DUP2 MSTORE POP SWAP1 JUMP JUMPDEST PUSH1 0x0 PUSH1 0x40 MLOAD SWAP1 POP SWAP1 JUMP JUMPDEST PUSH1 0x0 DUP1 REVERT JUMPDEST PUSH1 0x0 DUP1 REVERT JUMPDEST PUSH1 0x0 DUP2 SWAP1 POP SWAP2 SWAP1 POP JUMP JUMPDEST PUSH2 0x86D DUP2 PUSH2 0x85A JUMP JUMPDEST DUP2 EQ PUSH2 0x878 JUMPI PUSH1 0x0 DUP1 REVERT JUMPDEST POP JUMP JUMPDEST PUSH1 0x0 DUP2 CALLDATALOAD SWAP1 POP PUSH2 0x88A DUP2 PUSH2 0x864 JUMP JUMPDEST SWAP3 SWAP2 POP POP JUMP JUMPDEST PUSH1 0x0 PUSH1 0x20 DUP3 DUP5 SUB SLT ISZERO PUSH2 0x8A6 JUMPI PUSH2 0x8A5 PUSH2 0x850 JUMP JUMPDEST JUMPDEST PUSH1 0x0 PUSH2 0x8B4 DUP5 DUP3 DUP6 ADD PUSH2 0x87B JUMP JUMPDEST SWAP2 POP POP SWAP3 SWAP2 POP POP JUMP JUMPDEST PUSH2 0x8C6 DUP2 PUSH2 0x85A JUMP JUMPDEST DUP3 MSTORE POP POP JUMP JUMPDEST PUSH1 0x0 PUSH20 0xFFFFFFFFFFFFFFFFFFFFFFFFFFFFFFFFFFFFFFFF DUP3 AND SWAP1 POP SWAP2 SWAP1 POP JUMP JUMPDEST PUSH1 0x0 PUSH2 0x8F7 DUP3 PUSH2 0x8CC JUMP JUMPDEST SWAP1 POP SWAP2 SWAP1 POP JUMP JUMPDEST PUSH2 0x907 DUP2 PUSH2 0x8EC JUMP JUMPDEST DUP3 MSTORE POP POP JUMP JUMPDEST PUSH1 0x0 DUP2 MLOAD SWAP1 POP SWAP2 SWAP1 POP JUMP JUMPDEST PUSH1 0x0 DUP3 DUP3 MSTORE PUSH1 0x20 DUP3 ADD SWAP1 POP SWAP3 SWAP2 POP POP JUMP JUMPDEST PUSH1 0x0 JUMPDEST DUP4 DUP2 LT ISZERO PUSH2 0x947 JUMPI DUP1 DUP3 ADD MLOAD DUP2 DUP5 ADD MSTORE PUSH1 0x20 DUP2 ADD SWAP1 POP PUSH2 0x92C JUMP JUMPDEST PUSH1 0x0 DUP5 DUP5 ADD MSTORE POP POP POP POP JUMP JUMPDEST PUSH1 0x0 PUSH1 0x1F NOT PUSH1 0x1F DUP4 ADD AND SWAP1 POP SWAP2 SWAP1 POP JUMP JUMPDEST PUSH1 0x0 PUSH2 0x96F DUP3 PUSH2 0x90D JUMP JUMPDEST PUSH2 0x979 DUP2 DUP6 PUSH2 0x918 JUMP JUMPDEST SWAP4 POP PUSH2 0x989 DUP2 DUP6 PUSH1 0x20 DUP7 ADD PUSH2 0x929 JUMP JUMPDEST PUSH2 0x992 DUP2 PUSH2 0x953 JUMP JUMPDEST DUP5 ADD SWAP2 POP POP SWAP3 SWAP2 POP POP JUMP JUMPDEST PUSH1 0x0 PUSH1 0xA0 DUP3 ADD SWAP1 POP PUSH2 0x9B2 PUSH1 0x0 DUP4 ADD DUP9 PUSH2 0x8BD JUMP JUMPDEST PUSH2 0x9BF PUSH1 0x20 DUP4 ADD DUP8 PUSH2 0x8FE JUMP JUMPDEST DUP2 DUP2 SUB PUSH1 0x40 DUP4 ADD MSTORE PUSH2 0x9D1 DUP2 DUP7 PUSH2 0x964 JUMP JUMPDEST SWAP1 POP PUSH2 0x9E0 PUSH1 0x60 DUP4 ADD DUP6 PUSH2 0x8BD JUMP JUMPDEST DUP2 DUP2 SUB PUSH1 0x80 DUP4 ADD MSTORE PUSH2 0x9F2 DUP2 DUP5 PUSH2 0x964 JUMP JUMPDEST SWAP1 POP SWAP7 SWAP6 POP POP POP POP POP POP JUMP JUMPDEST PUSH1 0x0 DUP1 REVERT JUMPDEST PUSH1 0x0 DUP1 REVERT JUMPDEST PUSH32 0x4E487B7100000000000000000000000000000000000000000000000000000000 PUSH1 0x0 MSTORE PUSH1 0x41 PUSH1 0x4 MSTORE PUSH1 0x24 PUSH1 0x0 REVERT JUMPDEST PUSH2 0xA40 DUP3 PUSH2 0x953 JUMP JUMPDEST DUP2 ADD DUP2 DUP2 LT PUSH8 0xFFFFFFFFFFFFFFFF DUP3 GT OR ISZERO PUSH2 0xA5F JUMPI PUSH2 0xA5E PUSH2 0xA08 JUMP JUMPDEST JUMPDEST DUP1 PUSH1 0x40 MSTORE POP POP POP JUMP JUMPDEST PUSH1 0x0 PUSH2 0xA72 PUSH2 0x846 JUMP JUMPDEST SWAP1 POP PUSH2 0xA7E DUP3 DUP3 PUSH2 0xA37 JUMP JUMPDEST SWAP2 SWAP1 POP JUMP JUMPDEST PUSH1 0x0 PUSH8 0xFFFFFFFFFFFFFFFF DUP3 GT ISZERO PUSH2 0xA9E JUMPI PUSH2 0xA9D PUSH2 0xA08 JUMP JUMPDEST JUMPDEST PUSH2 0xAA7 DUP3 PUSH2 0x953 JUMP JUMPDEST SWAP1 POP PUSH1 0x20 DUP2 ADD SWAP1 POP SWAP2 SWAP1 POP JUMP JUMPDEST DUP3 DUP2 DUP4 CALLDATACOPY PUSH1 0x0 DUP4 DUP4 ADD MSTORE POP POP POP JUMP JUMPDEST PUSH1 0x0 PUSH2 0xAD6 PUSH2 0xAD1 DUP5 PUSH2 0xA83 JUMP JUMPDEST PUSH2 0xA68 JUMP JUMPDEST SWAP1 POP DUP3 DUP2 MSTORE PUSH1 0x20 DUP2 ADD DUP5 DUP5 DUP5 ADD GT ISZERO PUSH2 0xAF2 JUMPI PUSH2 0xAF1 PUSH2 0xA03 JUMP JUMPDEST JUMPDEST PUSH2 0xAFD DUP5 DUP3 DUP6 PUSH2 0xAB4 JUMP JUMPDEST POP SWAP4 SWAP3 POP POP POP JUMP JUMPDEST PUSH1 0x0 DUP3 PUSH1 0x1F DUP4 ADD SLT PUSH2 0xB1A JUMPI PUSH2 0xB19 PUSH2 0x9FE JUMP JUMPDEST JUMPDEST DUP2 CALLDATALOAD PUSH2 0xB2A DUP5 DUP3 PUSH1 0x20 DUP7 ADD PUSH2 0xAC3 JUMP JUMPDEST SWAP2 POP POP SWAP3 SWAP2 POP POP JUMP JUMPDEST PUSH1 0x0 DUP1 PUSH1 0x0 PUSH1 0x60 DUP5 DUP7 SUB SLT ISZERO PUSH2 0xB4C JUMPI PUSH2 0xB4B PUSH2 0x850 JUMP JUMPDEST JUMPDEST PUSH1 0x0 DUP5 ADD CALLDATALOAD PUSH8 0xFFFFFFFFFFFFFFFF DUP2 GT ISZERO PUSH2 0xB6A JUMPI PUSH2 0xB69 PUSH2 0x855 JUMP JUMPDEST JUMPDEST PUSH2 0xB76 DUP7 DUP3 DUP8 ADD PUSH2 0xB05 JUMP JUMPDEST SWAP4 POP POP PUSH1 0x20 PUSH2 0xB87 DUP7 DUP3 DUP8 ADD PUSH2 0x87B JUMP JUMPDEST SWAP3 POP POP PUSH1 0x40 DUP5 ADD CALLDATALOAD PUSH8 0xFFFFFFFFFFFFFFFF DUP2 GT ISZERO PUSH2 0xBA8 JUMPI PUSH2 0xBA7 PUSH2 0x855 JUMP JUMPDEST JUMPDEST PUSH2 0xBB4 DUP7 DUP3 DUP8 ADD PUSH2 0xB05 JUMP JUMPDEST SWAP2 POP POP SWAP3 POP SWAP3 POP SWAP3 JUMP JUMPDEST PUSH2 0xBC7 DUP2 PUSH2 0x85A JUMP JUMPDEST DUP3 MSTORE POP POP JUMP JUMPDEST PUSH2 0xBD6 DUP2 PUSH2 0x8EC JUMP JUMPDEST DUP3 MSTORE POP POP JUMP JUMPDEST PUSH1 0x0 DUP3 DUP3 MSTORE PUSH1 0x20 DUP3 ADD SWAP1 POP SWAP3 SWAP2 POP POP JUMP JUMPDEST PUSH1 0x0 PUSH2 0xBF8 DUP3 PUSH2 0x90D JUMP JUMPDEST PUSH2 0xC02 DUP2 DUP6 PUSH2 0xBDC JUMP JUMPDEST SWAP4 POP PUSH2 0xC12 DUP2 DUP6 PUSH1 0x20 DUP7 ADD PUSH2 0x929 JUMP JUMPDEST PUSH2 0xC1B DUP2 PUSH2 0x953 JUMP JUMPDEST DUP5 ADD SWAP2 POP POP SWAP3 SWAP2 POP POP JUMP JUMPDEST PUSH1 0x0 PUSH1 0xA0 DUP4 ADD PUSH1 0x0 DUP4 ADD MLOAD PUSH2 0xC3E PUSH1 0x0 DUP7 ADD DUP3 PUSH2 0xBBE JUMP JUMPDEST POP PUSH1 0x20 DUP4 ADD MLOAD PUSH2 0xC51 PUSH1 0x20 DUP7 ADD DUP3 PUSH2 0xBCD JUMP JUMPDEST POP PUSH1 0x40 DUP4 ADD MLOAD DUP5 DUP3 SUB PUSH1 0x40 DUP7 ADD MSTORE PUSH2 0xC69 DUP3 DUP3 PUSH2 0xBED JUMP JUMPDEST SWAP2 POP POP PUSH1 0x60 DUP4 ADD MLOAD PUSH2 0xC7E PUSH1 0x60 DUP7 ADD DUP3 PUSH2 0xBBE JUMP JUMPDEST POP PUSH1 0x80 DUP4 ADD MLOAD DUP5 DUP3 SUB PUSH1 0x80 DUP7 ADD MSTORE PUSH2 0xC96 DUP3 DUP3 PUSH2 0xBED JUMP JUMPDEST SWAP2 POP POP DUP1 SWAP2 POP POP SWAP3 SWAP2 POP POP JUMP JUMPDEST PUSH1 0x0 PUSH1 0x20 DUP3 ADD SWAP1 POP DUP2 DUP2 SUB PUSH1 0x0 DUP4 ADD MSTORE PUSH2 0xCBD DUP2 DUP5 PUSH2 0xC26 JUMP JUMPDEST SWAP1 POP SWAP3 SWAP2 POP POP JUMP JUMPDEST PUSH2 0xCCE DUP2 PUSH2 0x8EC JUMP JUMPDEST DUP2 EQ PUSH2 0xCD9 JUMPI PUSH1 0x0 DUP1 REVERT JUMPDEST POP JUMP JUMPDEST PUSH1 0x0 DUP2 CALLDATALOAD SWAP1 POP PUSH2 0xCEB DUP2 PUSH2 0xCC5 JUMP JUMPDEST SWAP3 SWAP2 POP POP JUMP JUMPDEST PUSH1 0x0 PUSH1 0x20 DUP3 DUP5 SUB SLT ISZERO PUSH2 0xD07 JUMPI PUSH2 0xD06 PUSH2 0x850 JUMP JUMPDEST JUMPDEST PUSH1 0x0 PUSH2 0xD15 DUP5 DUP3 DUP6 ADD PUSH2 0xCDC JUMP JUMPDEST SWAP2 POP POP SWAP3 SWAP2 POP POP JUMP JUMPDEST PUSH1 0x0 DUP2 MLOAD SWAP1 POP SWAP2 SWAP1 POP JUMP JUMPDEST PUSH1 0x0 DUP3 DUP3 MSTORE PUSH1 0x20 DUP3 ADD SWAP1 POP SWAP3 SWAP2 POP POP JUMP JUMPDEST PUSH1 0x0 DUP2 SWAP1 POP PUSH1 0x20 DUP3 ADD SWAP1 POP SWAP2 SWAP1 POP JUMP JUMPDEST PUSH1 0x0 PUSH2 0xD56 DUP4 DUP4 PUSH2 0xBBE JUMP JUMPDEST PUSH1 0x20 DUP4 ADD SWAP1 POP SWAP3 SWAP2 POP POP JUMP JUMPDEST PUSH1 0x0 PUSH1 0x20 DUP3 ADD SWAP1 POP SWAP2 SWAP1 POP JUMP JUMPDEST PUSH1 0x0 PUSH2 0xD7A DUP3 PUSH2 0xD1E JUMP JUMPDEST PUSH2 0xD84 DUP2 DUP6 PUSH2 0xD29 JUMP JUMPDEST SWAP4 POP PUSH2 0xD8F DUP4 PUSH2 0xD3A JUMP JUMPDEST DUP1 PUSH1 0x0 JUMPDEST DUP4 DUP2 LT ISZERO PUSH2 0xDC0 JUMPI DUP2 MLOAD PUSH2 0xDA7 DUP9 DUP3 PUSH2 0xD4A JUMP JUMPDEST SWAP8 POP PUSH2 0xDB2 DUP4 PUSH2 0xD62 JUMP JUMPDEST SWAP3 POP POP PUSH1 0x1 DUP2 ADD SWAP1 POP PUSH2 0xD93 JUMP JUMPDEST POP DUP6 SWAP4 POP POP POP POP SWAP3 SWAP2 POP POP JUMP JUMPDEST PUSH1 0x0 PUSH1 0x20 DUP3 ADD SWAP1 POP DUP2 DUP2 SUB PUSH1 0x0 DUP4 ADD MSTORE PUSH2 0xDE7 DUP2 DUP5 PUSH2 0xD6F JUMP JUMPDEST SWAP1 POP SWAP3 SWAP2 POP POP JUMP JUMPDEST PUSH1 0x0 DUP1 PUSH1 0x40 DUP4 DUP6 SUB SLT ISZERO PUSH2 0xE06 JUMPI PUSH2 0xE05 PUSH2 0x850 JUMP JUMPDEST JUMPDEST PUSH1 0x0 PUSH2 0xE14 DUP6 DUP3 DUP7 ADD PUSH2 0xCDC JUMP JUMPDEST SWAP3 POP POP PUSH1 0x20 PUSH2 0xE25 DUP6 DUP3 DUP7 ADD PUSH2 0x87B JUMP JUMPDEST SWAP2 POP POP SWAP3 POP SWAP3 SWAP1 POP JUMP JUMPDEST PUSH1 0x0 PUSH1 0x20 DUP3 ADD SWAP1 POP PUSH2 0xE44 PUSH1 0x0 DUP4 ADD DUP5 PUSH2 0x8BD JUMP JUMPDEST SWAP3 SWAP2 POP POP JUMP JUMPDEST PUSH32 0x4E487B7100000000000000000000000000000000000000000000000000000000 PUSH1 0x0 MSTORE PUSH1 0x22 PUSH1 0x4 MSTORE PUSH1 0x24 PUSH1 0x0 REVERT JUMPDEST PUSH1 0x0 PUSH1 0x2 DUP3 DIV SWAP1 POP PUSH1 0x1 DUP3 AND DUP1 PUSH2 0xE91 JUMPI PUSH1 0x7F DUP3 AND SWAP2 POP JUMPDEST PUSH1 0x20 DUP3 LT DUP2 SUB PUSH2 0xEA4 JUMPI PUSH2 0xEA3 PUSH2 0xE4A JUMP JUMPDEST JUMPDEST POP SWAP2 SWAP1 POP JUMP JUMPDEST PUSH32 0x50726F64756374206E616D652063616E6E6F7420626520656D70747900000000 PUSH1 0x0 DUP3 ADD MSTORE POP JUMP JUMPDEST PUSH1 0x0 PUSH2 0xEE0 PUSH1 0x1C DUP4 PUSH2 0x918 JUMP JUMPDEST SWAP2 POP PUSH2 0xEEB DUP3 PUSH2 0xEAA JUMP JUMPDEST PUSH1 0x20 DUP3 ADD SWAP1 POP SWAP2 SWAP1 POP JUMP JUMPDEST PUSH1 0x0 PUSH1 0x20 DUP3 ADD SWAP1 POP DUP2 DUP2 SUB PUSH1 0x0 DUP4 ADD MSTORE PUSH2 0xF0F DUP2 PUSH2 0xED3 JUMP JUMPDEST SWAP1 POP SWAP2 SWAP1 POP JUMP JUMPDEST PUSH32 0x5072696365206D7573742062652067726561746572207468616E207A65726F00 PUSH1 0x0 DUP3 ADD MSTORE POP JUMP JUMPDEST PUSH1 0x0 PUSH2 0xF4C PUSH1 0x1F DUP4 PUSH2 0x918 JUMP JUMPDEST SWAP2 POP PUSH2 0xF57 DUP3 PUSH2 0xF16 JUMP JUMPDEST PUSH1 0x20 DUP3 ADD SWAP1 POP SWAP2 SWAP1 POP JUMP JUMPDEST PUSH1 0x0 PUSH1 0x20 DUP3 ADD SWAP1 POP DUP2 DUP2 SUB PUSH1 0x0 DUP4 ADD MSTORE PUSH2 0xF7B DUP2 PUSH2 0xF3F JUMP JUMPDEST SWAP1 POP SWAP2 SWAP1 POP JUMP JUMPDEST PUSH32 0x4D6574616461746120686173682063616E6E6F7420626520656D707479000000 PUSH1 0x0 DUP3 ADD MSTORE POP JUMP JUMPDEST PUSH1 0x0 PUSH2 0xFB8 PUSH1 0x1D DUP4 PUSH2 0x918 JUMP JUMPDEST SWAP2 POP PUSH2 0xFC3 DUP3 PUSH2 0xF82 JUMP JUMPDEST PUSH1 0x20 DUP3 ADD SWAP1 POP SWAP2 SWAP1 POP JUMP JUMPDEST PUSH1 0x0 PUSH1 0x20 DUP3 ADD SWAP1 POP DUP2 DUP2 SUB PUSH1 0x0 DUP4 ADD MSTORE PUSH2 0xFE7 DUP2 PUSH2 0xFAB JUMP JUMPDEST SWAP1 POP SWAP2 SWAP1 POP JUMP JUMPDEST PUSH32 0x4E487B7100000000000000000000000000000000000000000000000000000000 PUSH1 0x0 MSTORE PUSH1 0x11 PUSH1 0x4 MSTORE PUSH1 0x24 PUSH1 0x0 REVERT JUMPDEST PUSH1 0x0 PUSH2 0x1028 DUP3 PUSH2 0x85A JUMP JUMPDEST SWAP2 POP PUSH32 0xFFFFFFFFFFFFFFFFFFFFFFFFFFFFFFFFFFFFFFFFFFFFFFFFFFFFFFFFFFFFFFFF DUP3 SUB PUSH2 0x105A JUMPI PUSH2 0x1059 PUSH2 0xFEE JUMP JUMPDEST JUMPDEST PUSH1 0x1 DUP3 ADD SWAP1 POP SWAP2 SWAP1 POP JUMP JUMPDEST PUSH1 0x0 DUP2 SWAP1 POP DUP2 PUSH1 0x0 MSTORE PUSH1 0x20 PUSH1 0x0 KECCAK256 SWAP1 POP SWAP2 SWAP1 POP JUMP JUMPDEST PUSH1 0x0 PUSH1 0x20 PUSH1 0x1F DUP4 ADD DIV SWAP1 POP SWAP2 SWAP1 POP JUMP JUMPDEST PUSH1 0x0 DUP3 DUP3 SHL SWAP1 POP SWAP3 SWAP2 POP POP JUMP JUMPDEST PUSH1 0x0 PUSH1 0x8 DUP4 MUL PUSH2 0x10C7 PUSH32 0xFFFFFFFFFFFFFFFFFFFFFFFFFFFFFFFFFFFFFFFFFFFFFFFFFFFFFFFFFFFFFFFF DUP3 PUSH2 0x108A JUMP JUMPDEST PUSH2 0x10D1 DUP7 DUP4 PUSH2 0x108A JUMP JUMPDEST SWAP6 POP DUP1 NOT DUP5 AND SWAP4 POP DUP1 DUP7 AND DUP5 OR SWAP3 POP POP POP SWAP4 SWAP3 POP POP POP JUMP JUMPDEST PUSH1 0x0 DUP2 SWAP1 POP SWAP2 SWAP1 POP JUMP JUMPDEST PUSH1 0x0 PUSH2 0x110E PUSH2 0x1109 PUSH2 0x1104 DUP5 PUSH2 0x85A JUMP JUMPDEST PUSH2 0x10E9 JUMP JUMPDEST PUSH2 0x85A JUMP JUMPDEST SWAP1 POP SWAP2 SWAP1 POP JUMP JUMPDEST PUSH1 0x0 DUP2 SWAP1 POP SWAP2 SWAP1 POP JUMP JUMPDEST PUSH2 0x1128 DUP4 PUSH2 0x10F3 JUMP JUMPDEST PUSH2 0x113C PUSH2 0x1134 DUP3 PUSH2 0x1115 JUMP JUMPDEST DUP5 DUP5 SLOAD PUSH2 0x1097 JUMP JUMPDEST DUP3 SSTORE POP POP POP POP JUMP JUMPDEST PUSH1 0x0 SWAP1 JUMP JUMPDEST PUSH2 0x1151 PUSH2 0x1144 JUMP JUMPDEST PUSH2 0x115C DUP2 DUP5 DUP5 PUSH2 0x111F JUMP JUMPDEST POP POP POP JUMP JUMPDEST JUMPDEST DUP2 DUP2 LT ISZERO PUSH2 0x1180 JUMPI PUSH2 0x1175 PUSH1 0x0 DUP3 PUSH2 0x1149 JUMP JUMPDEST PUSH1 0x1 DUP2 ADD SWAP1 POP PUSH2 0x1162 JUMP JUMPDEST POP POP JUMP JUMPDEST PUSH1 0x1F DUP3 GT ISZERO PUSH2 0x11C5 JUMPI PUSH2 0x1196 DUP2 PUSH2 0x1065 JUMP JUMPDEST PUSH2 0x119F DUP5 PUSH2 0x107A JUMP JUMPDEST DUP2 ADD PUSH1 0x20 DUP6 LT ISZERO PUSH2 0x11AE JUMPI DUP2 SWAP1 POP JUMPDEST PUSH2 0x11C2 PUSH2 0x11BA DUP6 PUSH2 0x107A JUMP JUMPDEST DUP4 ADD DUP3 PUSH2 0x1161 JUMP JUMPDEST POP POP JUMPDEST POP POP POP JUMP JUMPDEST PUSH1 0x0 DUP3 DUP3 SHR SWAP1 POP SWAP3 SWAP2 POP POP JUMP JUMPDEST PUSH1 0x0 PUSH2 0x11E8 PUSH1 0x0 NOT DUP5 PUSH1 0x8 MUL PUSH2 0x11CA JUMP JUMPDEST NOT DUP1 DUP4 AND SWAP2 POP POP SWAP3 SWAP2 POP POP JUMP JUMPDEST PUSH1 0x0 PUSH2 0x1201 DUP4 DUP4 PUSH2 0x11D7 JUMP JUMPDEST SWAP2 POP DUP3 PUSH1 0x2 MUL DUP3 OR SWAP1 POP SWAP3 SWAP2 POP POP JUMP JUMPDEST PUSH2 0x121A DUP3 PUSH2 0x90D JUMP JUMPDEST PUSH8 0xFFFFFFFFFFFFFFFF DUP2 GT ISZERO PUSH2 0x1233 JUMPI PUSH2 0x1232 PUSH2 0xA08 JUMP JUMPDEST JUMPDEST PUSH2 0x123D DUP3 SLOAD PUSH2 0xE79 JUMP JUMPDEST PUSH2 0x1248 DUP3 DUP3 DUP6 PUSH2 0x1184 JUMP JUMPDEST PUSH1 0x0 PUSH1 0x20 SWAP1 POP PUSH1 0x1F DUP4 GT PUSH1 0x1 DUP2 EQ PUSH2 0x127B JUMPI PUSH1 0x0 DUP5 ISZERO PUSH2 0x1269 JUMPI DUP3 DUP8 ADD MLOAD SWAP1 POP JUMPDEST PUSH2 0x1273 DUP6 DUP3 PUSH2 0x11F5 JUMP JUMPDEST DUP7 SSTORE POP PUSH2 0x12DB JUMP JUMPDEST PUSH1 0x1F NOT DUP5 AND PUSH2 0x1289 DUP7 PUSH2 0x1065 JUMP JUMPDEST PUSH1 0x0 JUMPDEST DUP3 DUP2 LT ISZERO PUSH2 0x12B1 JUMPI DUP5 DUP10 ADD MLOAD DUP3 SSTORE PUSH1 0x1 DUP3 ADD SWAP2 POP PUSH1 0x20 DUP6 ADD SWAP5 POP PUSH1 0x20 DUP2 ADD SWAP1 POP PUSH2 0x128C JUMP JUMPDEST DUP7 DUP4 LT ISZERO PUSH2 0x12CE JUMPI DUP5 DUP10 ADD MLOAD PUSH2 0x12CA PUSH1 0x1F DUP10 AND DUP3 PUSH2 0x11D7 JUMP JUMPDEST DUP4 SSTORE POP JUMPDEST PUSH1 0x1 PUSH1 0x2 DUP9 MUL ADD DUP9 SSTORE POP POP POP JUMPDEST POP POP POP POP POP POP JUMP JUMPDEST PUSH32 0x50726F6475637420646F6573206E6F7420657869737400000000000000000000 PUSH1 0x0 DUP3 ADD MSTORE POP JUMP JUMPDEST PUSH1 0x0 PUSH2 0x1319 PUSH1 0x16 DUP4 PUSH2 0x918 JUMP JUMPDEST SWAP2 POP PUSH2 0x1324 DUP3 PUSH2 0x12E3 JUMP JUMPDEST PUSH1 0x20 DUP3 ADD SWAP1 POP SWAP2 SWAP1 POP JUMP JUMPDEST PUSH1 0x0 PUSH1 0x20 DUP3 ADD SWAP1 POP DUP2 DUP2 SUB PUSH1 0x0 DUP4 ADD MSTORE PUSH2 0x1348 DUP2 PUSH2 0x130C JUMP JUMPDEST SWAP1 POP SWAP2 SWAP1 POP JUMP INVALID LOG2 PUSH5 0x6970667358 0x22 SLT KECCAK256 0xF8 RETURN PUSH7 0x8C331F657BBDA4 SAR MSIZE STOP SWAP14 SHL 0x2D 0xE4 DUP10 0xB8 CALLDATALOAD ISZERO 0xEF PUSH20 0xA06BFBFFBFB7E6FB9B64736F6C634300081C0033 "},"methodIdentifiers":{"addProduct(string,uint256,string)":"8f29695a","getProduct(uint256)":"b9db15b4","getProductsBySeller(address)":"bacdafe0","productCount()":"e0f6ef87","products(uint256)":"7acc0b20","sellerProducts(address,uint256)":"c1302b34"}}}}}